{
    "_format": "hh-sol-artifact-1",
    "contractName": "MyNFT",
    "sourceName": "contracts/MyNFT.sol",
    "abi": [
        {
            "inputs": [],
            "stateMutability": "nonpayable",
            "type": "constructor"
        },
        {
            "anonymous": false,
            "inputs": [
                {
                    "indexed": true,
                    "internalType": "address",
                    "name": "owner",
                    "type": "address"
                },
                {
                    "indexed": true,
                    "internalType": "address",
                    "name": "approved",
                    "type": "address"
                },
                {
                    "indexed": true,
                    "internalType": "uint256",
                    "name": "tokenId",
                    "type": "uint256"
                }
            ],
            "name": "Approval",
            "type": "event"
        },
        {
            "anonymous": false,
            "inputs": [
                {
                    "indexed": true,
                    "internalType": "address",
                    "name": "owner",
                    "type": "address"
                },
                {
                    "indexed": true,
                    "internalType": "address",
                    "name": "operator",
                    "type": "address"
                },
                {
                    "indexed": false,
                    "internalType": "bool",
                    "name": "approved",
                    "type": "bool"
                }
            ],
            "name": "ApprovalForAll",
            "type": "event"
        },
        {
            "anonymous": false,
            "inputs": [
                {
                    "indexed": false,
                    "internalType": "address",
                    "name": "sender",
                    "type": "address"
                },
                {
                    "indexed": false,
                    "internalType": "uint256",
                    "name": "tokenId",
                    "type": "uint256"
                }
            ],
            "name": "NewNFTMinted",
            "type": "event"
        },
        {
            "anonymous": false,
            "inputs": [
                {
                    "indexed": true,
                    "internalType": "address",
                    "name": "from",
                    "type": "address"
                },
                {
                    "indexed": true,
                    "internalType": "address",
                    "name": "to",
                    "type": "address"
                },
                {
                    "indexed": true,
                    "internalType": "uint256",
                    "name": "tokenId",
                    "type": "uint256"
                }
            ],
            "name": "Transfer",
            "type": "event"
        },
        {
            "inputs": [
                {
                    "internalType": "address",
                    "name": "to",
                    "type": "address"
                },
                {
                    "internalType": "uint256",
                    "name": "tokenId",
                    "type": "uint256"
                }
            ],
            "name": "approve",
            "outputs": [],
            "stateMutability": "nonpayable",
            "type": "function"
        },
        {
            "inputs": [
                {
                    "internalType": "address",
                    "name": "owner",
                    "type": "address"
                }
            ],
            "name": "balanceOf",
            "outputs": [
                {
                    "internalType": "uint256",
                    "name": "",
                    "type": "uint256"
                }
            ],
            "stateMutability": "view",
            "type": "function"
        },
        {
            "inputs": [
                {
                    "internalType": "uint256",
                    "name": "tokenId",
                    "type": "uint256"
                }
            ],
            "name": "getApproved",
            "outputs": [
                {
                    "internalType": "address",
                    "name": "",
                    "type": "address"
                }
            ],
            "stateMutability": "view",
            "type": "function"
        },
        {
            "inputs": [
                {
                    "internalType": "address",
                    "name": "owner",
                    "type": "address"
                },
                {
                    "internalType": "address",
                    "name": "operator",
                    "type": "address"
                }
            ],
            "name": "isApprovedForAll",
            "outputs": [
                {
                    "internalType": "bool",
                    "name": "",
                    "type": "bool"
                }
            ],
            "stateMutability": "view",
            "type": "function"
        },
        {
            "inputs": [
                {
                    "internalType": "string",
                    "name": "finalSvg",
                    "type": "string"
                }
            ],
            "name": "makeNFT",
            "outputs": [],
            "stateMutability": "nonpayable",
            "type": "function"
        },
        {
            "inputs": [],
            "name": "name",
            "outputs": [
                {
                    "internalType": "string",
                    "name": "",
                    "type": "string"
                }
            ],
            "stateMutability": "view",
            "type": "function"
        },
        {
            "inputs": [
                {
                    "internalType": "uint256",
                    "name": "tokenId",
                    "type": "uint256"
                }
            ],
            "name": "ownerOf",
            "outputs": [
                {
                    "internalType": "address",
                    "name": "",
                    "type": "address"
                }
            ],
            "stateMutability": "view",
            "type": "function"
        },
        {
            "inputs": [
                {
                    "internalType": "address",
                    "name": "from",
                    "type": "address"
                },
                {
                    "internalType": "address",
                    "name": "to",
                    "type": "address"
                },
                {
                    "internalType": "uint256",
                    "name": "tokenId",
                    "type": "uint256"
                }
            ],
            "name": "safeTransferFrom",
            "outputs": [],
            "stateMutability": "nonpayable",
            "type": "function"
        },
        {
            "inputs": [
                {
                    "internalType": "address",
                    "name": "from",
                    "type": "address"
                },
                {
                    "internalType": "address",
                    "name": "to",
                    "type": "address"
                },
                {
                    "internalType": "uint256",
                    "name": "tokenId",
                    "type": "uint256"
                },
                {
                    "internalType": "bytes",
                    "name": "_data",
                    "type": "bytes"
                }
            ],
            "name": "safeTransferFrom",
            "outputs": [],
            "stateMutability": "nonpayable",
            "type": "function"
        },
        {
            "inputs": [
                {
                    "internalType": "address",
                    "name": "operator",
                    "type": "address"
                },
                {
                    "internalType": "bool",
                    "name": "approved",
                    "type": "bool"
                }
            ],
            "name": "setApprovalForAll",
            "outputs": [],
            "stateMutability": "nonpayable",
            "type": "function"
        },
        {
            "inputs": [
                {
                    "internalType": "bytes4",
                    "name": "interfaceId",
                    "type": "bytes4"
                }
            ],
            "name": "supportsInterface",
            "outputs": [
                {
                    "internalType": "bool",
                    "name": "",
                    "type": "bool"
                }
            ],
            "stateMutability": "view",
            "type": "function"
        },
        {
            "inputs": [],
            "name": "symbol",
            "outputs": [
                {
                    "internalType": "string",
                    "name": "",
                    "type": "string"
                }
            ],
            "stateMutability": "view",
            "type": "function"
        },
        {
            "inputs": [
                {
                    "internalType": "uint256",
                    "name": "tokenId",
                    "type": "uint256"
                }
            ],
            "name": "tokenURI",
            "outputs": [
                {
                    "internalType": "string",
                    "name": "",
                    "type": "string"
                }
            ],
            "stateMutability": "view",
            "type": "function"
        },
        {
            "inputs": [
                {
                    "internalType": "address",
                    "name": "from",
                    "type": "address"
                },
                {
                    "internalType": "address",
                    "name": "to",
                    "type": "address"
                },
                {
                    "internalType": "uint256",
                    "name": "tokenId",
                    "type": "uint256"
                }
            ],
            "name": "transferFrom",
            "outputs": [],
            "stateMutability": "nonpayable",
            "type": "function"
        }
    ],
    "bytecode": "0x60806040523480156200001157600080fd5b506040518060400160405280600681526020017f4a61734e465400000000000000000000000000000000000000000000000000008152506040518060400160405280600381526020017f4a41530000000000000000000000000000000000000000000000000000000000815250816000908051906020019062000096929190620001cf565b508060019080519060200190620000af929190620001cf565b505050620000fd6040518060400160405280601881526020017f54686973206973206d79204e465420636f6e74726163742100000000000000008152506200010360201b62000c491760201c565b620003ac565b620001a3816040516024016200011a9190620002c0565b6040516020818303038152906040527f41304fac000000000000000000000000000000000000000000000000000000007bffffffffffffffffffffffffffffffffffffffffffffffffffffffff19166020820180517bffffffffffffffffffffffffffffffffffffffffffffffffffffffff8381831617835250505050620001a660201b60201c565b50565b60008151905060006a636f6e736f6c652e6c6f679050602083016000808483855afa5050505050565b828054620001dd9062000336565b90600052602060002090601f0160209004810192826200020157600085556200024d565b82601f106200021c57805160ff19168380011785556200024d565b828001600101855582156200024d579182015b828111156200024c5782518255916020019190600101906200022f565b5b5090506200025c919062000260565b5090565b5b808211156200027b57600081600090555060010162000261565b5090565b60006200028c82620002e4565b620002988185620002ef565b9350620002aa81856020860162000300565b620002b5816200039b565b840191505092915050565b60006020820190508181036000830152620002dc81846200027f565b905092915050565b600081519050919050565b600082825260208201905092915050565b60005b838110156200032057808201518184015260208101905062000303565b8381111562000330576000848401525b50505050565b600060028204905060018216806200034f57607f821691505b602082108114156200036657620003656200036c565b5b50919050565b7f4e487b7100000000000000000000000000000000000000000000000000000000600052602260045260246000fd5b6000601f19601f8301169050919050565b6131d180620003bc6000396000f3fe608060405234801561001057600080fd5b50600436106100ea5760003560e01c806370a082311161008c578063b88d4fde11610066578063b88d4fde1461025b578063c87b56dd14610277578063c910262f146102a7578063e985e9c5146102c3576100ea565b806370a08231146101f157806395d89b4114610221578063a22cb4651461023f576100ea565b8063095ea7b3116100c8578063095ea7b31461016d57806323b872dd1461018957806342842e0e146101a55780636352211e146101c1576100ea565b806301ffc9a7146100ef57806306fdde031461011f578063081812fc1461013d575b600080fd5b6101096004803603810190610104919061207e565b6102f3565b6040516101169190612a2d565b60405180910390f35b6101276103d5565b6040516101349190612a48565b60405180910390f35b61015760048036038101906101529190612111565b610467565b604051610164919061299d565b60405180910390f35b61018760048036038101906101829190612042565b6104ec565b005b6101a3600480360381019061019e9190611f3c565b610604565b005b6101bf60048036038101906101ba9190611f3c565b610664565b005b6101db60048036038101906101d69190612111565b610684565b6040516101e8919061299d565b60405180910390f35b61020b60048036038101906102069190611ed7565b610736565b6040516102189190612ca8565b60405180910390f35b6102296107ee565b6040516102369190612a48565b60405180910390f35b61025960048036038101906102549190612006565b610880565b005b61027560048036038101906102709190611f8b565b610896565b005b610291600480360381019061028c9190612111565b6108f8565b60405161029e9190612a48565b60405180910390f35b6102c160048036038101906102bc91906120d0565b610a4a565b005b6102dd60048036038101906102d89190611f00565b610bb5565b6040516102ea9190612a2d565b60405180910390f35b60007f80ac58cd000000000000000000000000000000000000000000000000000000007bffffffffffffffffffffffffffffffffffffffffffffffffffffffff1916827bffffffffffffffffffffffffffffffffffffffffffffffffffffffff191614806103be57507f5b5e139f000000000000000000000000000000000000000000000000000000007bffffffffffffffffffffffffffffffffffffffffffffffffffffffff1916827bffffffffffffffffffffffffffffffffffffffffffffffffffffffff1916145b806103ce57506103cd82610ce2565b5b9050919050565b6060600080546103e490612f62565b80601f016020809104026020016040519081016040528092919081815260200182805461041090612f62565b801561045d5780601f106104325761010080835404028352916020019161045d565b820191906000526020600020905b81548152906001019060200180831161044057829003601f168201915b5050505050905090565b600061047282610d4c565b6104b1576040517f08c379a00000000000000000000000000000000000000000000000000000000081526004016104a890612c08565b60405180910390fd5b6004600083815260200190815260200160002060009054906101000a900473ffffffffffffffffffffffffffffffffffffffff169050919050565b60006104f782610684565b90508073ffffffffffffffffffffffffffffffffffffffff168373ffffffffffffffffffffffffffffffffffffffff161415610568576040517f08c379a000000000000000000000000000000000000000000000000000000000815260040161055f90612c68565b60405180910390fd5b8073ffffffffffffffffffffffffffffffffffffffff16610587610db8565b73ffffffffffffffffffffffffffffffffffffffff1614806105b657506105b5816105b0610db8565b610bb5565b5b6105f5576040517f08c379a00000000000000000000000000000000000000000000000000000000081526004016105ec90612b48565b60405180910390fd5b6105ff8383610dc0565b505050565b61061561060f610db8565b82610e79565b610654576040517f08c379a000000000000000000000000000000000000000000000000000000000815260040161064b90612c88565b60405180910390fd5b61065f838383610f57565b505050565b61067f83838360405180602001604052806000815250610896565b505050565b6000806002600084815260200190815260200160002060009054906101000a900473ffffffffffffffffffffffffffffffffffffffff169050600073ffffffffffffffffffffffffffffffffffffffff168173ffffffffffffffffffffffffffffffffffffffff16141561072d576040517f08c379a000000000000000000000000000000000000000000000000000000000815260040161072490612b88565b60405180910390fd5b80915050919050565b60008073ffffffffffffffffffffffffffffffffffffffff168273ffffffffffffffffffffffffffffffffffffffff1614156107a7576040517f08c379a000000000000000000000000000000000000000000000000000000000815260040161079e90612b68565b60405180910390fd5b600360008373ffffffffffffffffffffffffffffffffffffffff1673ffffffffffffffffffffffffffffffffffffffff168152602001908152602001600020549050919050565b6060600180546107fd90612f62565b80601f016020809104026020016040519081016040528092919081815260200182805461082990612f62565b80156108765780601f1061084b57610100808354040283529160200191610876565b820191906000526020600020905b81548152906001019060200180831161085957829003601f168201915b5050505050905090565b61089261088b610db8565b83836111b3565b5050565b6108a76108a1610db8565b83610e79565b6108e6576040517f08c379a00000000000000000000000000000000000000000000000000000000081526004016108dd90612c88565b60405180910390fd5b6108f284848484611320565b50505050565b606061090382610d4c565b610942576040517f08c379a000000000000000000000000000000000000000000000000000000000815260040161093990612be8565b60405180910390fd5b600060066000848152602001908152602001600020805461096290612f62565b80601f016020809104026020016040519081016040528092919081815260200182805461098e90612f62565b80156109db5780601f106109b0576101008083540402835291602001916109db565b820191906000526020600020905b8154815290600101906020018083116109be57829003601f168201915b5050505050905060006109ec61137c565b9050600081511415610a02578192505050610a45565b600082511115610a37578082604051602001610a1f92919061292a565b60405160208183030381529060405292505050610a45565b610a4084611393565b925050505b919050565b6000610a56600761143a565b90506000610a8a610a6684611448565b604051602001610a769190612970565b604051602081830303815290604052611448565b9050600081604051602001610a9f919061294e565b6040516020818303038152906040529050610aee6040518060400160405280601581526020017f0a2d2d2d2d2d2d2d2d2d2d2d2d2d2d2d2d2d2d2d2d0000000000000000000000815250610c49565b610af784610c49565b610b356040518060400160405280601581526020017f2d2d2d2d2d2d2d2d2d2d2d2d2d2d2d2d2d2d2d2d0a0000000000000000000000815250610c49565b610b3f3384611606565b610b498382611624565b610b536007611698565b610b766040518060600160405280602481526020016131786024913984336116ae565b7f1c05098ed1ff38e6238d2b1b04b2c7977d4c94ce651bda6473f9dba8dbf01da03384604051610ba7929190612a04565b60405180910390a150505050565b6000600560008473ffffffffffffffffffffffffffffffffffffffff1673ffffffffffffffffffffffffffffffffffffffff16815260200190815260200160002060008373ffffffffffffffffffffffffffffffffffffffff1673ffffffffffffffffffffffffffffffffffffffff16815260200190815260200160002060009054906101000a900460ff16905092915050565b610cdf81604051602401610c5d9190612a48565b6040516020818303038152906040527f41304fac000000000000000000000000000000000000000000000000000000007bffffffffffffffffffffffffffffffffffffffffffffffffffffffff19166020820180517bffffffffffffffffffffffffffffffffffffffffffffffffffffffff838183161783525050505061174d565b50565b60007f01ffc9a7000000000000000000000000000000000000000000000000000000007bffffffffffffffffffffffffffffffffffffffffffffffffffffffff1916827bffffffffffffffffffffffffffffffffffffffffffffffffffffffff1916149050919050565b60008073ffffffffffffffffffffffffffffffffffffffff166002600084815260200190815260200160002060009054906101000a900473ffffffffffffffffffffffffffffffffffffffff1673ffffffffffffffffffffffffffffffffffffffff1614159050919050565b600033905090565b816004600083815260200190815260200160002060006101000a81548173ffffffffffffffffffffffffffffffffffffffff021916908373ffffffffffffffffffffffffffffffffffffffff160217905550808273ffffffffffffffffffffffffffffffffffffffff16610e3383610684565b73ffffffffffffffffffffffffffffffffffffffff167f8c5be1e5ebec7d5bd14f71427d1e84f3dd0314c0f7b2291e5b200ac8c7c3b92560405160405180910390a45050565b6000610e8482610d4c565b610ec3576040517f08c379a0000000000000000000000000000000000000000000000000000000008152600401610eba90612b28565b60405180910390fd5b6000610ece83610684565b90508073ffffffffffffffffffffffffffffffffffffffff168473ffffffffffffffffffffffffffffffffffffffff161480610f3d57508373ffffffffffffffffffffffffffffffffffffffff16610f2584610467565b73ffffffffffffffffffffffffffffffffffffffff16145b80610f4e5750610f4d8185610bb5565b5b91505092915050565b8273ffffffffffffffffffffffffffffffffffffffff16610f7782610684565b73ffffffffffffffffffffffffffffffffffffffff1614610fcd576040517f08c379a0000000000000000000000000000000000000000000000000000000008152600401610fc490612c28565b60405180910390fd5b600073ffffffffffffffffffffffffffffffffffffffff168273ffffffffffffffffffffffffffffffffffffffff16141561103d576040517f08c379a000000000000000000000000000000000000000000000000000000000815260040161103490612ae8565b60405180910390fd5b611048838383611776565b611053600082610dc0565b6001600360008573ffffffffffffffffffffffffffffffffffffffff1673ffffffffffffffffffffffffffffffffffffffff16815260200190815260200160002060008282546110a39190612e78565b925050819055506001600360008473ffffffffffffffffffffffffffffffffffffffff1673ffffffffffffffffffffffffffffffffffffffff16815260200190815260200160002060008282546110fa9190612d97565b92505081905550816002600083815260200190815260200160002060006101000a81548173ffffffffffffffffffffffffffffffffffffffff021916908373ffffffffffffffffffffffffffffffffffffffff160217905550808273ffffffffffffffffffffffffffffffffffffffff168473ffffffffffffffffffffffffffffffffffffffff167fddf252ad1be2c89b69c2b068fc378daa952ba7f163c4a11628f55a4df523b3ef60405160405180910390a4505050565b8173ffffffffffffffffffffffffffffffffffffffff168373ffffffffffffffffffffffffffffffffffffffff161415611222576040517f08c379a000000000000000000000000000000000000000000000000000000000815260040161121990612b08565b60405180910390fd5b80600560008573ffffffffffffffffffffffffffffffffffffffff1673ffffffffffffffffffffffffffffffffffffffff16815260200190815260200160002060008473ffffffffffffffffffffffffffffffffffffffff1673ffffffffffffffffffffffffffffffffffffffff16815260200190815260200160002060006101000a81548160ff0219169083151502179055508173ffffffffffffffffffffffffffffffffffffffff168373ffffffffffffffffffffffffffffffffffffffff167f17307eab39ab6107e8899845ad3d59bd9653f200f220920489ca2b5937696c31836040516113139190612a2d565b60405180910390a3505050565b61132b848484610f57565b6113378484848461177b565b611376576040517f08c379a000000000000000000000000000000000000000000000000000000000815260040161136d90612aa8565b60405180910390fd5b50505050565b606060405180602001604052806000815250905090565b606061139e82610d4c565b6113dd576040517f08c379a00000000000000000000000000000000000000000000000000000000081526004016113d490612c48565b60405180910390fd5b60006113e761137c565b905060008151116114075760405180602001604052806000815250611432565b8061141184611912565b60405160200161142292919061292a565b6040516020818303038152906040525b915050919050565b600081600001549050919050565b606060008251905060008114156114715760405180602001604052806000815250915050611601565b600060036002836114829190612d97565b61148c9190612ded565b60046114989190612e1e565b905060006020826114a99190612d97565b67ffffffffffffffff8111156114e8577f4e487b7100000000000000000000000000000000000000000000000000000000600052604160045260246000fd5b6040519080825280601f01601f19166020018201604052801561151a5781602001600182028036833780820191505090505b5090506000604051806060016040528060408152602001613138604091399050600181016020830160005b868110156115be5760038101905062ffffff818a015116603f8160121c168401518060081b905060ff603f83600c1c1686015116810190508060081b905060ff603f8360061c1686015116810190508060081b905060ff603f831686015116810190508060e01b90508084526004840193505050611545565b5060038606600181146115d857600281146115e8576115f3565b613d3d60f01b60028303526115f3565b603d60f81b60018303525b508484525050819450505050505b919050565b611620828260405180602001604052806000815250611abf565b5050565b61162d82610d4c565b61166c576040517f08c379a000000000000000000000000000000000000000000000000000000000815260040161166390612ba8565b60405180910390fd5b80600660008481526020019081526020016000209080519060200190611693929190611cfb565b505050565b6001816000016000828254019250508190555050565b6117488383836040516024016116c693929190612a6a565b6040516020818303038152906040527fe3849f79000000000000000000000000000000000000000000000000000000007bffffffffffffffffffffffffffffffffffffffffffffffffffffffff19166020820180517bffffffffffffffffffffffffffffffffffffffffffffffffffffffff838183161783525050505061174d565b505050565b60008151905060006a636f6e736f6c652e6c6f679050602083016000808483855afa5050505050565b505050565b600061179c8473ffffffffffffffffffffffffffffffffffffffff16611b1a565b15611905578373ffffffffffffffffffffffffffffffffffffffff1663150b7a026117c5610db8565b8786866040518563ffffffff1660e01b81526004016117e794939291906129b8565b602060405180830381600087803b15801561180157600080fd5b505af192505050801561183257506040513d601f19601f8201168201806040525081019061182f91906120a7565b60015b6118b5573d8060008114611862576040519150601f19603f3d011682016040523d82523d6000602084013e611867565b606091505b506000815114156118ad576040517f08c379a00000000000000000000000000000000000000000000000000000000081526004016118a490612aa8565b60405180910390fd5b805181602001fd5b63150b7a0260e01b7bffffffffffffffffffffffffffffffffffffffffffffffffffffffff1916817bffffffffffffffffffffffffffffffffffffffffffffffffffffffff19161491505061190a565b600190505b949350505050565b6060600082141561195a576040518060400160405280600181526020017f30000000000000000000000000000000000000000000000000000000000000008152509050611aba565b600082905060005b6000821461198c57808061197590612f94565b915050600a826119859190612ded565b9150611962565b60008167ffffffffffffffff8111156119ce577f4e487b7100000000000000000000000000000000000000000000000000000000600052604160045260246000fd5b6040519080825280601f01601f191660200182016040528015611a005781602001600182028036833780820191505090505b5090505b60008514611ab357600182611a199190612e78565b9150600a85611a289190612fdd565b6030611a349190612d97565b60f81b818381518110611a70577f4e487b7100000000000000000000000000000000000000000000000000000000600052603260045260246000fd5b60200101907effffffffffffffffffffffffffffffffffffffffffffffffffffffffffffff1916908160001a905350600a85611aac9190612ded565b9450611a04565b8093505050505b919050565b611ac98383611b2d565b611ad6600084848461177b565b611b15576040517f08c379a0000000000000000000000000000000000000000000000000000000008152600401611b0c90612aa8565b60405180910390fd5b505050565b600080823b905060008111915050919050565b600073ffffffffffffffffffffffffffffffffffffffff168273ffffffffffffffffffffffffffffffffffffffff161415611b9d576040517f08c379a0000000000000000000000000000000000000000000000000000000008152600401611b9490612bc8565b60405180910390fd5b611ba681610d4c565b15611be6576040517f08c379a0000000000000000000000000000000000000000000000000000000008152600401611bdd90612ac8565b60405180910390fd5b611bf260008383611776565b6001600360008473ffffffffffffffffffffffffffffffffffffffff1673ffffffffffffffffffffffffffffffffffffffff1681526020019081526020016000206000828254611c429190612d97565b92505081905550816002600083815260200190815260200160002060006101000a81548173ffffffffffffffffffffffffffffffffffffffff021916908373ffffffffffffffffffffffffffffffffffffffff160217905550808273ffffffffffffffffffffffffffffffffffffffff16600073ffffffffffffffffffffffffffffffffffffffff167fddf252ad1be2c89b69c2b068fc378daa952ba7f163c4a11628f55a4df523b3ef60405160405180910390a45050565b828054611d0790612f62565b90600052602060002090601f016020900481019282611d295760008555611d70565b82601f10611d4257805160ff1916838001178555611d70565b82800160010185558215611d70579182015b82811115611d6f578251825591602001919060010190611d54565b5b509050611d7d9190611d81565b5090565b5b80821115611d9a576000816000905550600101611d82565b5090565b6000611db1611dac84612cf4565b612cc3565b905082815260208101848484011115611dc957600080fd5b611dd4848285612f20565b509392505050565b6000611def611dea84612d24565b612cc3565b905082815260208101848484011115611e0757600080fd5b611e12848285612f20565b509392505050565b600081359050611e29816130db565b92915050565b600081359050611e3e816130f2565b92915050565b600081359050611e5381613109565b92915050565b600081519050611e6881613109565b92915050565b600082601f830112611e7f57600080fd5b8135611e8f848260208601611d9e565b91505092915050565b600082601f830112611ea957600080fd5b8135611eb9848260208601611ddc565b91505092915050565b600081359050611ed181613120565b92915050565b600060208284031215611ee957600080fd5b6000611ef784828501611e1a565b91505092915050565b60008060408385031215611f1357600080fd5b6000611f2185828601611e1a565b9250506020611f3285828601611e1a565b9150509250929050565b600080600060608486031215611f5157600080fd5b6000611f5f86828701611e1a565b9350506020611f7086828701611e1a565b9250506040611f8186828701611ec2565b9150509250925092565b60008060008060808587031215611fa157600080fd5b6000611faf87828801611e1a565b9450506020611fc087828801611e1a565b9350506040611fd187828801611ec2565b925050606085013567ffffffffffffffff811115611fee57600080fd5b611ffa87828801611e6e565b91505092959194509250565b6000806040838503121561201957600080fd5b600061202785828601611e1a565b925050602061203885828601611e2f565b9150509250929050565b6000806040838503121561205557600080fd5b600061206385828601611e1a565b925050602061207485828601611ec2565b9150509250929050565b60006020828403121561209057600080fd5b600061209e84828501611e44565b91505092915050565b6000602082840312156120b957600080fd5b60006120c784828501611e59565b91505092915050565b6000602082840312156120e257600080fd5b600082013567ffffffffffffffff8111156120fc57600080fd5b61210884828501611e98565b91505092915050565b60006020828403121561212357600080fd5b600061213184828501611ec2565b91505092915050565b61214381612eac565b82525050565b61215281612ebe565b82525050565b600061216382612d54565b61216d8185612d6a565b935061217d818560208601612f2f565b612186816130ca565b840191505092915050565b600061219c82612d5f565b6121a68185612d7b565b93506121b6818560208601612f2f565b6121bf816130ca565b840191505092915050565b60006121d582612d5f565b6121df8185612d8c565b93506121ef818560208601612f2f565b80840191505092915050565b6000612208603283612d7b565b91507f4552433732313a207472616e7366657220746f206e6f6e20455243373231526560008301527f63656976657220696d706c656d656e74657200000000000000000000000000006020830152604082019050919050565b600061226e601c83612d7b565b91507f4552433732313a20746f6b656e20616c7265616479206d696e746564000000006000830152602082019050919050565b60006122ae602483612d7b565b91507f4552433732313a207472616e7366657220746f20746865207a65726f2061646460008301527f72657373000000000000000000000000000000000000000000000000000000006020830152604082019050919050565b6000612314601983612d7b565b91507f4552433732313a20617070726f766520746f2063616c6c6572000000000000006000830152602082019050919050565b6000612354602c83612d7b565b91507f4552433732313a206f70657261746f7220717565727920666f72206e6f6e657860008301527f697374656e7420746f6b656e00000000000000000000000000000000000000006020830152604082019050919050565b60006123ba603883612d7b565b91507f4552433732313a20617070726f76652063616c6c6572206973206e6f74206f7760008301527f6e6572206e6f7220617070726f76656420666f7220616c6c00000000000000006020830152604082019050919050565b6000612420602a83612d7b565b91507f4552433732313a2062616c616e636520717565727920666f7220746865207a6560008301527f726f2061646472657373000000000000000000000000000000000000000000006020830152604082019050919050565b6000612486602983612d7b565b91507f4552433732313a206f776e657220717565727920666f72206e6f6e657869737460008301527f656e7420746f6b656e00000000000000000000000000000000000000000000006020830152604082019050919050565b60006124ec602e83612d7b565b91507f45524337323155524953746f726167653a2055524920736574206f66206e6f6e60008301527f6578697374656e7420746f6b656e0000000000000000000000000000000000006020830152604082019050919050565b6000612552600283612d8c565b91507f227d0000000000000000000000000000000000000000000000000000000000006000830152600282019050919050565b6000612592602083612d7b565b91507f4552433732313a206d696e7420746f20746865207a65726f20616464726573736000830152602082019050919050565b60006125d2603183612d7b565b91507f45524337323155524953746f726167653a2055524920717565727920666f722060008301527f6e6f6e6578697374656e7420746f6b656e0000000000000000000000000000006020830152604082019050919050565b6000612638602c83612d7b565b91507f4552433732313a20617070726f76656420717565727920666f72206e6f6e657860008301527f697374656e7420746f6b656e00000000000000000000000000000000000000006020830152604082019050919050565b600061269e602983612d7b565b91507f4552433732313a207472616e73666572206f6620746f6b656e2074686174206960008301527f73206e6f74206f776e00000000000000000000000000000000000000000000006020830152604082019050919050565b6000612704602f83612d7b565b91507f4552433732314d657461646174613a2055524920717565727920666f72206e6f60008301527f6e6578697374656e7420746f6b656e00000000000000000000000000000000006020830152604082019050919050565b600061276a602183612d7b565b91507f4552433732313a20617070726f76616c20746f2063757272656e74206f776e6560008301527f72000000000000000000000000000000000000000000000000000000000000006020830152604082019050919050565b60006127d0601d83612d8c565b91507f646174613a6170706c69636174696f6e2f6a736f6e3b6261736536342c0000006000830152601d82019050919050565b6000612810603183612d7b565b91507f4552433732313a207472616e736665722063616c6c6572206973206e6f74206f60008301527f776e6572206e6f7220617070726f7665640000000000000000000000000000006020830152604082019050919050565b6000612876607183612d8c565b91507f7b226e616d65223a2022504650222c20226465736372697074696f6e223a202260008301527f4120636f6c6c656374696f6e206f66207765623320547261646572204a6f657360208301527f2050726f64756374732e222c2022696d616765223a2022646174613a696d616760408301527f652f7376672b786d6c3b6261736536342c0000000000000000000000000000006060830152607182019050919050565b61292481612f16565b82525050565b600061293682856121ca565b915061294282846121ca565b91508190509392505050565b6000612959826127c3565b915061296582846121ca565b915081905092915050565b600061297b82612869565b915061298782846121ca565b915061299282612545565b915081905092915050565b60006020820190506129b2600083018461213a565b92915050565b60006080820190506129cd600083018761213a565b6129da602083018661213a565b6129e7604083018561291b565b81810360608301526129f98184612158565b905095945050505050565b6000604082019050612a19600083018561213a565b612a26602083018461291b565b9392505050565b6000602082019050612a426000830184612149565b92915050565b60006020820190508181036000830152612a628184612191565b905092915050565b60006060820190508181036000830152612a848186612191565b9050612a93602083018561291b565b612aa0604083018461213a565b949350505050565b60006020820190508181036000830152612ac1816121fb565b9050919050565b60006020820190508181036000830152612ae181612261565b9050919050565b60006020820190508181036000830152612b01816122a1565b9050919050565b60006020820190508181036000830152612b2181612307565b9050919050565b60006020820190508181036000830152612b4181612347565b9050919050565b60006020820190508181036000830152612b61816123ad565b9050919050565b60006020820190508181036000830152612b8181612413565b9050919050565b60006020820190508181036000830152612ba181612479565b9050919050565b60006020820190508181036000830152612bc1816124df565b9050919050565b60006020820190508181036000830152612be181612585565b9050919050565b60006020820190508181036000830152612c01816125c5565b9050919050565b60006020820190508181036000830152612c218161262b565b9050919050565b60006020820190508181036000830152612c4181612691565b9050919050565b60006020820190508181036000830152612c61816126f7565b9050919050565b60006020820190508181036000830152612c818161275d565b9050919050565b60006020820190508181036000830152612ca181612803565b9050919050565b6000602082019050612cbd600083018461291b565b92915050565b6000604051905081810181811067ffffffffffffffff82111715612cea57612ce961309b565b5b8060405250919050565b600067ffffffffffffffff821115612d0f57612d0e61309b565b5b601f19601f8301169050602081019050919050565b600067ffffffffffffffff821115612d3f57612d3e61309b565b5b601f19601f8301169050602081019050919050565b600081519050919050565b600081519050919050565b600082825260208201905092915050565b600082825260208201905092915050565b600081905092915050565b6000612da282612f16565b9150612dad83612f16565b9250827fffffffffffffffffffffffffffffffffffffffffffffffffffffffffffffffff03821115612de257612de161300e565b5b828201905092915050565b6000612df882612f16565b9150612e0383612f16565b925082612e1357612e1261303d565b5b828204905092915050565b6000612e2982612f16565b9150612e3483612f16565b9250817fffffffffffffffffffffffffffffffffffffffffffffffffffffffffffffffff0483118215151615612e6d57612e6c61300e565b5b828202905092915050565b6000612e8382612f16565b9150612e8e83612f16565b925082821015612ea157612ea061300e565b5b828203905092915050565b6000612eb782612ef6565b9050919050565b60008115159050919050565b60007fffffffff0000000000000000000000000000000000000000000000000000000082169050919050565b600073ffffffffffffffffffffffffffffffffffffffff82169050919050565b6000819050919050565b82818337600083830152505050565b60005b83811015612f4d578082015181840152602081019050612f32565b83811115612f5c576000848401525b50505050565b60006002820490506001821680612f7a57607f821691505b60208210811415612f8e57612f8d61306c565b5b50919050565b6000612f9f82612f16565b91507fffffffffffffffffffffffffffffffffffffffffffffffffffffffffffffffff821415612fd257612fd161300e565b5b600182019050919050565b6000612fe882612f16565b9150612ff383612f16565b9250826130035761300261303d565b5b828206905092915050565b7f4e487b7100000000000000000000000000000000000000000000000000000000600052601160045260246000fd5b7f4e487b7100000000000000000000000000000000000000000000000000000000600052601260045260246000fd5b7f4e487b7100000000000000000000000000000000000000000000000000000000600052602260045260246000fd5b7f4e487b7100000000000000000000000000000000000000000000000000000000600052604160045260246000fd5b6000601f19601f8301169050919050565b6130e481612eac565b81146130ef57600080fd5b50565b6130fb81612ebe565b811461310657600080fd5b50565b61311281612eca565b811461311d57600080fd5b50565b61312981612f16565b811461313457600080fd5b5056fe4142434445464748494a4b4c4d4e4f505152535455565758595a6162636465666768696a6b6c6d6e6f707172737475767778797a303132333435363738392b2f416e204e4654207720494420257320686173206265656e206d696e74656420746f202573a2646970667358221220b52c3d88b7b962ffc9447b1054687708ad5666bc4b3cbff425dfbaacebf12a4e64736f6c63430008000033",
    "linkReferences": {},
    "deployedLinkReferences": {}
}