{
  "_format": "hh-sol-artifact-1",
  "contractName": "NFTPoly",
  "sourceName": "contracts/PolyNFT.sol",
  "abi": [
    {
      "inputs": [
        {
          "internalType": "string",
          "name": "baseURI",
          "type": "string"
        }
      ],
      "stateMutability": "nonpayable",
      "type": "constructor"
    },
    {
      "anonymous": false,
      "inputs": [
        {
          "indexed": true,
          "internalType": "address",
          "name": "owner",
          "type": "address"
        },
        {
          "indexed": true,
          "internalType": "address",
          "name": "approved",
          "type": "address"
        },
        {
          "indexed": true,
          "internalType": "uint256",
          "name": "tokenId",
          "type": "uint256"
        }
      ],
      "name": "Approval",
      "type": "event"
    },
    {
      "anonymous": false,
      "inputs": [
        {
          "indexed": true,
          "internalType": "address",
          "name": "owner",
          "type": "address"
        },
        {
          "indexed": true,
          "internalType": "address",
          "name": "operator",
          "type": "address"
        },
        {
          "indexed": false,
          "internalType": "bool",
          "name": "approved",
          "type": "bool"
        }
      ],
      "name": "ApprovalForAll",
      "type": "event"
    },
    {
      "anonymous": false,
      "inputs": [
        {
          "indexed": true,
          "internalType": "address",
          "name": "previousOwner",
          "type": "address"
        },
        {
          "indexed": true,
          "internalType": "address",
          "name": "newOwner",
          "type": "address"
        }
      ],
      "name": "OwnershipTransferred",
      "type": "event"
    },
    {
      "anonymous": false,
      "inputs": [
        {
          "indexed": true,
          "internalType": "address",
          "name": "from",
          "type": "address"
        },
        {
          "indexed": true,
          "internalType": "address",
          "name": "to",
          "type": "address"
        },
        {
          "indexed": true,
          "internalType": "uint256",
          "name": "tokenId",
          "type": "uint256"
        }
      ],
      "name": "Transfer",
      "type": "event"
    },
    {
      "inputs": [],
      "name": "MAX_PER_MINT",
      "outputs": [
        {
          "internalType": "uint256",
          "name": "",
          "type": "uint256"
        }
      ],
      "stateMutability": "view",
      "type": "function"
    },
    {
      "inputs": [],
      "name": "MAX_SUPPLY",
      "outputs": [
        {
          "internalType": "uint256",
          "name": "",
          "type": "uint256"
        }
      ],
      "stateMutability": "view",
      "type": "function"
    },
    {
      "inputs": [],
      "name": "PRICE",
      "outputs": [
        {
          "internalType": "uint256",
          "name": "",
          "type": "uint256"
        }
      ],
      "stateMutability": "view",
      "type": "function"
    },
    {
      "inputs": [
        {
          "internalType": "address",
          "name": "to",
          "type": "address"
        },
        {
          "internalType": "uint256",
          "name": "tokenId",
          "type": "uint256"
        }
      ],
      "name": "approve",
      "outputs": [],
      "stateMutability": "nonpayable",
      "type": "function"
    },
    {
      "inputs": [
        {
          "internalType": "address",
          "name": "owner",
          "type": "address"
        }
      ],
      "name": "balanceOf",
      "outputs": [
        {
          "internalType": "uint256",
          "name": "",
          "type": "uint256"
        }
      ],
      "stateMutability": "view",
      "type": "function"
    },
    {
      "inputs": [],
      "name": "baseTokenURI",
      "outputs": [
        {
          "internalType": "string",
          "name": "",
          "type": "string"
        }
      ],
      "stateMutability": "view",
      "type": "function"
    },
    {
      "inputs": [
        {
          "internalType": "uint256",
          "name": "tokenId",
          "type": "uint256"
        }
      ],
      "name": "getApproved",
      "outputs": [
        {
          "internalType": "address",
          "name": "",
          "type": "address"
        }
      ],
      "stateMutability": "view",
      "type": "function"
    },
    {
      "inputs": [
        {
          "internalType": "address",
          "name": "owner",
          "type": "address"
        },
        {
          "internalType": "address",
          "name": "operator",
          "type": "address"
        }
      ],
      "name": "isApprovedForAll",
      "outputs": [
        {
          "internalType": "bool",
          "name": "",
          "type": "bool"
        }
      ],
      "stateMutability": "view",
      "type": "function"
    },
    {
      "inputs": [
        {
          "internalType": "uint256",
          "name": "_count",
          "type": "uint256"
        }
      ],
      "name": "mintNFTs",
      "outputs": [],
      "stateMutability": "payable",
      "type": "function"
    },
    {
      "inputs": [],
      "name": "name",
      "outputs": [
        {
          "internalType": "string",
          "name": "",
          "type": "string"
        }
      ],
      "stateMutability": "view",
      "type": "function"
    },
    {
      "inputs": [],
      "name": "owner",
      "outputs": [
        {
          "internalType": "address",
          "name": "",
          "type": "address"
        }
      ],
      "stateMutability": "view",
      "type": "function"
    },
    {
      "inputs": [
        {
          "internalType": "uint256",
          "name": "tokenId",
          "type": "uint256"
        }
      ],
      "name": "ownerOf",
      "outputs": [
        {
          "internalType": "address",
          "name": "",
          "type": "address"
        }
      ],
      "stateMutability": "view",
      "type": "function"
    },
    {
      "inputs": [],
      "name": "renounceOwnership",
      "outputs": [],
      "stateMutability": "nonpayable",
      "type": "function"
    },
    {
      "inputs": [],
      "name": "reserveNFTs",
      "outputs": [],
      "stateMutability": "nonpayable",
      "type": "function"
    },
    {
      "inputs": [
        {
          "internalType": "address",
          "name": "from",
          "type": "address"
        },
        {
          "internalType": "address",
          "name": "to",
          "type": "address"
        },
        {
          "internalType": "uint256",
          "name": "tokenId",
          "type": "uint256"
        }
      ],
      "name": "safeTransferFrom",
      "outputs": [],
      "stateMutability": "nonpayable",
      "type": "function"
    },
    {
      "inputs": [
        {
          "internalType": "address",
          "name": "from",
          "type": "address"
        },
        {
          "internalType": "address",
          "name": "to",
          "type": "address"
        },
        {
          "internalType": "uint256",
          "name": "tokenId",
          "type": "uint256"
        },
        {
          "internalType": "bytes",
          "name": "_data",
          "type": "bytes"
        }
      ],
      "name": "safeTransferFrom",
      "outputs": [],
      "stateMutability": "nonpayable",
      "type": "function"
    },
    {
      "inputs": [
        {
          "internalType": "address",
          "name": "operator",
          "type": "address"
        },
        {
          "internalType": "bool",
          "name": "approved",
          "type": "bool"
        }
      ],
      "name": "setApprovalForAll",
      "outputs": [],
      "stateMutability": "nonpayable",
      "type": "function"
    },
    {
      "inputs": [
        {
          "internalType": "string",
          "name": "_baseTokenURI",
          "type": "string"
        }
      ],
      "name": "setBaseURI",
      "outputs": [],
      "stateMutability": "nonpayable",
      "type": "function"
    },
    {
      "inputs": [
        {
          "internalType": "bytes4",
          "name": "interfaceId",
          "type": "bytes4"
        }
      ],
      "name": "supportsInterface",
      "outputs": [
        {
          "internalType": "bool",
          "name": "",
          "type": "bool"
        }
      ],
      "stateMutability": "view",
      "type": "function"
    },
    {
      "inputs": [],
      "name": "symbol",
      "outputs": [
        {
          "internalType": "string",
          "name": "",
          "type": "string"
        }
      ],
      "stateMutability": "view",
      "type": "function"
    },
    {
      "inputs": [
        {
          "internalType": "uint256",
          "name": "index",
          "type": "uint256"
        }
      ],
      "name": "tokenByIndex",
      "outputs": [
        {
          "internalType": "uint256",
          "name": "",
          "type": "uint256"
        }
      ],
      "stateMutability": "view",
      "type": "function"
    },
    {
      "inputs": [
        {
          "internalType": "address",
          "name": "owner",
          "type": "address"
        },
        {
          "internalType": "uint256",
          "name": "index",
          "type": "uint256"
        }
      ],
      "name": "tokenOfOwnerByIndex",
      "outputs": [
        {
          "internalType": "uint256",
          "name": "",
          "type": "uint256"
        }
      ],
      "stateMutability": "view",
      "type": "function"
    },
    {
      "inputs": [
        {
          "internalType": "uint256",
          "name": "tokenId",
          "type": "uint256"
        }
      ],
      "name": "tokenURI",
      "outputs": [
        {
          "internalType": "string",
          "name": "",
          "type": "string"
        }
      ],
      "stateMutability": "view",
      "type": "function"
    },
    {
      "inputs": [
        {
          "internalType": "address",
          "name": "_owner",
          "type": "address"
        }
      ],
      "name": "tokensOfOwner",
      "outputs": [
        {
          "internalType": "uint256[]",
          "name": "",
          "type": "uint256[]"
        }
      ],
      "stateMutability": "view",
      "type": "function"
    },
    {
      "inputs": [],
      "name": "totalSupply",
      "outputs": [
        {
          "internalType": "uint256",
          "name": "",
          "type": "uint256"
        }
      ],
      "stateMutability": "view",
      "type": "function"
    },
    {
      "inputs": [
        {
          "internalType": "address",
          "name": "from",
          "type": "address"
        },
        {
          "internalType": "address",
          "name": "to",
          "type": "address"
        },
        {
          "internalType": "uint256",
          "name": "tokenId",
          "type": "uint256"
        }
      ],
      "name": "transferFrom",
      "outputs": [],
      "stateMutability": "nonpayable",
      "type": "function"
    },
    {
      "inputs": [
        {
          "internalType": "address",
          "name": "newOwner",
          "type": "address"
        }
      ],
      "name": "transferOwnership",
      "outputs": [],
      "stateMutability": "nonpayable",
      "type": "function"
    },
    {
      "inputs": [],
      "name": "withdraw",
      "outputs": [],
      "stateMutability": "payable",
      "type": "function"
    }
  ],
  "bytecode": "0x60806040523480156200001157600080fd5b50604051620046c4380380620046c48339818101604052810190620000379190620003d4565b6040518060400160405280600781526020017f4e4654506f6c79000000000000000000000000000000000000000000000000008152506040518060400160405280600481526020017f4e465450000000000000000000000000000000000000000000000000000000008152508160009080519060200190620000bb929190620002b2565b508060019080519060200190620000d4929190620002b2565b505050620000f7620000eb6200010f60201b60201c565b6200011760201b60201c565b6200010881620001dd60201b60201c565b50620005bf565b600033905090565b6000600a60009054906101000a900473ffffffffffffffffffffffffffffffffffffffff16905081600a60006101000a81548173ffffffffffffffffffffffffffffffffffffffff021916908373ffffffffffffffffffffffffffffffffffffffff1602179055508173ffffffffffffffffffffffffffffffffffffffff168173ffffffffffffffffffffffffffffffffffffffff167f8be0079c531659141344cd1fd0a4f28419497f9722a3daafe3b4186f6b6457e060405160405180910390a35050565b620001ed6200010f60201b60201c565b73ffffffffffffffffffffffffffffffffffffffff16620002136200028860201b60201c565b73ffffffffffffffffffffffffffffffffffffffff16146200026c576040517f08c379a000000000000000000000000000000000000000000000000000000000815260040162000263906200045b565b60405180910390fd5b80600c908051906020019062000284929190620002b2565b5050565b6000600a60009054906101000a900473ffffffffffffffffffffffffffffffffffffffff16905090565b828054620002c0906200052b565b90600052602060002090601f016020900481019282620002e4576000855562000330565b82601f10620002ff57805160ff191683800117855562000330565b8280016001018555821562000330579182015b828111156200032f57825182559160200191906001019062000312565b5b5090506200033f919062000343565b5090565b5b808211156200035e57600081600090555060010162000344565b5090565b6000620003796200037384620004b1565b6200047d565b9050828152602081018484840111156200039257600080fd5b6200039f848285620004f5565b509392505050565b600082601f830112620003b957600080fd5b8151620003cb84826020860162000362565b91505092915050565b600060208284031215620003e757600080fd5b600082015167ffffffffffffffff8111156200040257600080fd5b6200041084828501620003a7565b91505092915050565b600062000428602083620004e4565b91507f4f776e61626c653a2063616c6c6572206973206e6f7420746865206f776e65726000830152602082019050919050565b60006020820190508181036000830152620004768162000419565b9050919050565b6000604051905081810181811067ffffffffffffffff82111715620004a757620004a662000590565b5b8060405250919050565b600067ffffffffffffffff821115620004cf57620004ce62000590565b5b601f19601f8301169050602081019050919050565b600082825260208201905092915050565b60005b8381101562000515578082015181840152602081019050620004f8565b8381111562000525576000848401525b50505050565b600060028204905060018216806200054457607f821691505b602082108114156200055b576200055a62000561565b5b50919050565b7f4e487b7100000000000000000000000000000000000000000000000000000000600052602260045260246000fd5b7f4e487b7100000000000000000000000000000000000000000000000000000000600052604160045260246000fd5b6140f580620005cf6000396000f3fe6080604052600436106101b75760003560e01c806355f804b3116100ec57806395d89b411161008a578063c87b56dd11610064578063c87b56dd146105de578063d547cfb71461061b578063e985e9c514610646578063f2fde38b14610683576101b7565b806395d89b4114610561578063a22cb4651461058c578063b88d4fde146105b5576101b7565b8063715018a6116100c6578063715018a6146104b75780638462151c146104ce5780638d859f3e1461050b5780638da5cb5b14610536576101b7565b806355f804b3146104145780636352211e1461043d57806370a082311461047a576101b7565b806323b872dd116101595780633b4b1381116101335780633b4b1381146103885780633ccfd60b146103a457806342842e0e146103ae5780634f6ccce7146103d7576101b7565b806323b872dd146102f75780632f745c591461032057806332cb6b0c1461035d576101b7565b8063095ea7b311610195578063095ea7b31461026157806309d42b301461028a578063144100c7146102b557806318160ddd146102cc576101b7565b806301ffc9a7146101bc57806306fdde03146101f9578063081812fc14610224575b600080fd5b3480156101c857600080fd5b506101e360048036038101906101de9190612d62565b6106ac565b6040516101f091906138af565b60405180910390f35b34801561020557600080fd5b5061020e610726565b60405161021b91906138ca565b60405180910390f35b34801561023057600080fd5b5061024b60048036038101906102469190612df5565b6107b8565b6040516102589190613826565b60405180910390f35b34801561026d57600080fd5b5061028860048036038101906102839190612d26565b61083d565b005b34801561029657600080fd5b5061029f610955565b6040516102ac9190613bec565b60405180910390f35b3480156102c157600080fd5b506102ca61095a565b005b3480156102d857600080fd5b506102e1610a66565b6040516102ee9190613bec565b60405180910390f35b34801561030357600080fd5b5061031e60048036038101906103199190612c20565b610a73565b005b34801561032c57600080fd5b5061034760048036038101906103429190612d26565b610ad3565b6040516103549190613bec565b60405180910390f35b34801561036957600080fd5b50610372610b78565b60405161037f9190613bec565b60405180910390f35b6103a2600480360381019061039d9190612df5565b610b7e565b005b6103ac610cba565b005b3480156103ba57600080fd5b506103d560048036038101906103d09190612c20565b610e2e565b005b3480156103e357600080fd5b506103fe60048036038101906103f99190612df5565b610e4e565b60405161040b9190613bec565b60405180910390f35b34801561042057600080fd5b5061043b60048036038101906104369190612db4565b610ee5565b005b34801561044957600080fd5b50610464600480360381019061045f9190612df5565b610f7b565b6040516104719190613826565b60405180910390f35b34801561048657600080fd5b506104a1600480360381019061049c9190612bbb565b61102d565b6040516104ae9190613bec565b60405180910390f35b3480156104c357600080fd5b506104cc6110e5565b005b3480156104da57600080fd5b506104f560048036038101906104f09190612bbb565b61116d565b604051610502919061388d565b60405180910390f35b34801561051757600080fd5b50610520611267565b60405161052d9190613bec565b60405180910390f35b34801561054257600080fd5b5061054b611272565b6040516105589190613826565b60405180910390f35b34801561056d57600080fd5b5061057661129c565b60405161058391906138ca565b60405180910390f35b34801561059857600080fd5b506105b360048036038101906105ae9190612cea565b61132e565b005b3480156105c157600080fd5b506105dc60048036038101906105d79190612c6f565b611344565b005b3480156105ea57600080fd5b5061060560048036038101906106009190612df5565b6113a6565b60405161061291906138ca565b60405180910390f35b34801561062757600080fd5b5061063061144d565b60405161063d91906138ca565b60405180910390f35b34801561065257600080fd5b5061066d60048036038101906106689190612be4565b6114db565b60405161067a91906138af565b60405180910390f35b34801561068f57600080fd5b506106aa60048036038101906106a59190612bbb565b61156f565b005b60007f780e9d63000000000000000000000000000000000000000000000000000000007bffffffffffffffffffffffffffffffffffffffffffffffffffffffff1916827bffffffffffffffffffffffffffffffffffffffffffffffffffffffff1916148061071f575061071e82611667565b5b9050919050565b60606000805461073590613eea565b80601f016020809104026020016040519081016040528092919081815260200182805461076190613eea565b80156107ae5780601f10610783576101008083540402835291602001916107ae565b820191906000526020600020905b81548152906001019060200180831161079157829003601f168201915b5050505050905090565b60006107c382611749565b610802576040517f08c379a00000000000000000000000000000000000000000000000000000000081526004016107f990613aec565b60405180910390fd5b6004600083815260200190815260200160002060009054906101000a900473ffffffffffffffffffffffffffffffffffffffff169050919050565b600061084882610f7b565b90508073ffffffffffffffffffffffffffffffffffffffff168373ffffffffffffffffffffffffffffffffffffffff1614156108b9576040517f08c379a00000000000000000000000000000000000000000000000000000000081526004016108b090613b6c565b60405180910390fd5b8073ffffffffffffffffffffffffffffffffffffffff166108d86117b5565b73ffffffffffffffffffffffffffffffffffffffff1614806109075750610906816109016117b5565b6114db565b5b610946576040517f08c379a000000000000000000000000000000000000000000000000000000000815260040161093d90613a4c565b60405180910390fd5b61095083836117bd565b505050565b600381565b6109626117b5565b73ffffffffffffffffffffffffffffffffffffffff16610980611272565b73ffffffffffffffffffffffffffffffffffffffff16146109d6576040517f08c379a00000000000000000000000000000000000000000000000000000000081526004016109cd90613b0c565b60405180910390fd5b60006109e2600b611876565b90506101906109fb600a8361188490919063ffffffff16565b10610a3b576040517f08c379a0000000000000000000000000000000000000000000000000000000008152600401610a32906138ec565b60405180910390fd5b60005b600a811015610a6257610a4f61189a565b8080610a5a90613f1c565b915050610a3e565b5050565b6000600880549050905090565b610a84610a7e6117b5565b826118bf565b610ac3576040517f08c379a0000000000000000000000000000000000000000000000000000000008152600401610aba90613bac565b60405180910390fd5b610ace83838361199d565b505050565b6000610ade8361102d565b8210610b1f576040517f08c379a0000000000000000000000000000000000000000000000000000000008152600401610b169061390c565b60405180910390fd5b600660008473ffffffffffffffffffffffffffffffffffffffff1673ffffffffffffffffffffffffffffffffffffffff168152602001908152602001600020600083815260200190815260200160002054905092915050565b61019081565b6000610b8a600b611876565b9050610190610ba2838361188490919063ffffffff16565b1115610be3576040517f08c379a0000000000000000000000000000000000000000000000000000000008152600401610bda906139ec565b60405180910390fd5b600082118015610bf4575060038211155b610c33576040517f08c379a0000000000000000000000000000000000000000000000000000000008152600401610c2a90613a0c565b60405180910390fd5b610c4d82662386f26fc10000611bf990919063ffffffff16565b341015610c8f576040517f08c379a0000000000000000000000000000000000000000000000000000000008152600401610c86906139cc565b60405180910390fd5b60005b82811015610cb557610ca261189a565b8080610cad90613f1c565b915050610c92565b505050565b610cc26117b5565b73ffffffffffffffffffffffffffffffffffffffff16610ce0611272565b73ffffffffffffffffffffffffffffffffffffffff1614610d36576040517f08c379a0000000000000000000000000000000000000000000000000000000008152600401610d2d90613b0c565b60405180910390fd5b600047905060008111610d7e576040517f08c379a0000000000000000000000000000000000000000000000000000000008152600401610d7590613acc565b60405180910390fd5b60003373ffffffffffffffffffffffffffffffffffffffff1682604051610da490613811565b60006040518083038185875af1925050503d8060008114610de1576040519150601f19603f3d011682016040523d82523d6000602084013e610de6565b606091505b5050905080610e2a576040517f08c379a0000000000000000000000000000000000000000000000000000000008152600401610e2190613b8c565b60405180910390fd5b5050565b610e4983838360405180602001604052806000815250611344565b505050565b6000610e58610a66565b8210610e99576040517f08c379a0000000000000000000000000000000000000000000000000000000008152600401610e9090613bcc565b60405180910390fd5b60088281548110610ed3577f4e487b7100000000000000000000000000000000000000000000000000000000600052603260045260246000fd5b90600052602060002001549050919050565b610eed6117b5565b73ffffffffffffffffffffffffffffffffffffffff16610f0b611272565b73ffffffffffffffffffffffffffffffffffffffff1614610f61576040517f08c379a0000000000000000000000000000000000000000000000000000000008152600401610f5890613b0c565b60405180910390fd5b80600c9080519060200190610f779291906129df565b5050565b6000806002600084815260200190815260200160002060009054906101000a900473ffffffffffffffffffffffffffffffffffffffff169050600073ffffffffffffffffffffffffffffffffffffffff168173ffffffffffffffffffffffffffffffffffffffff161415611024576040517f08c379a000000000000000000000000000000000000000000000000000000000815260040161101b90613a8c565b60405180910390fd5b80915050919050565b60008073ffffffffffffffffffffffffffffffffffffffff168273ffffffffffffffffffffffffffffffffffffffff16141561109e576040517f08c379a000000000000000000000000000000000000000000000000000000000815260040161109590613a6c565b60405180910390fd5b600360008373ffffffffffffffffffffffffffffffffffffffff1673ffffffffffffffffffffffffffffffffffffffff168152602001908152602001600020549050919050565b6110ed6117b5565b73ffffffffffffffffffffffffffffffffffffffff1661110b611272565b73ffffffffffffffffffffffffffffffffffffffff1614611161576040517f08c379a000000000000000000000000000000000000000000000000000000000815260040161115890613b0c565b60405180910390fd5b61116b6000611c0f565b565b6060600061117a8361102d565b905060008167ffffffffffffffff8111156111be577f4e487b7100000000000000000000000000000000000000000000000000000000600052604160045260246000fd5b6040519080825280602002602001820160405280156111ec5781602001602082028036833780820191505090505b50905060005b8281101561125c576112048582610ad3565b82828151811061123d577f4e487b7100000000000000000000000000000000000000000000000000000000600052603260045260246000fd5b602002602001018181525050808061125490613f1c565b9150506111f2565b508092505050919050565b662386f26fc1000081565b6000600a60009054906101000a900473ffffffffffffffffffffffffffffffffffffffff16905090565b6060600180546112ab90613eea565b80601f01602080910402602001604051908101604052809291908181526020018280546112d790613eea565b80156113245780601f106112f957610100808354040283529160200191611324565b820191906000526020600020905b81548152906001019060200180831161130757829003601f168201915b5050505050905090565b6113406113396117b5565b8383611cd5565b5050565b61135561134f6117b5565b836118bf565b611394576040517f08c379a000000000000000000000000000000000000000000000000000000000815260040161138b90613bac565b60405180910390fd5b6113a084848484611e42565b50505050565b60606113b182611749565b6113f0576040517f08c379a00000000000000000000000000000000000000000000000000000000081526004016113e790613b4c565b60405180910390fd5b60006113fa611e9e565b9050600081511161141a5760405180602001604052806000815250611445565b8061142484611f30565b6040516020016114359291906137ed565b6040516020818303038152906040525b915050919050565b600c805461145a90613eea565b80601f016020809104026020016040519081016040528092919081815260200182805461148690613eea565b80156114d35780601f106114a8576101008083540402835291602001916114d3565b820191906000526020600020905b8154815290600101906020018083116114b657829003601f168201915b505050505081565b6000600560008473ffffffffffffffffffffffffffffffffffffffff1673ffffffffffffffffffffffffffffffffffffffff16815260200190815260200160002060008373ffffffffffffffffffffffffffffffffffffffff1673ffffffffffffffffffffffffffffffffffffffff16815260200190815260200160002060009054906101000a900460ff16905092915050565b6115776117b5565b73ffffffffffffffffffffffffffffffffffffffff16611595611272565b73ffffffffffffffffffffffffffffffffffffffff16146115eb576040517f08c379a00000000000000000000000000000000000000000000000000000000081526004016115e290613b0c565b60405180910390fd5b600073ffffffffffffffffffffffffffffffffffffffff168173ffffffffffffffffffffffffffffffffffffffff16141561165b576040517f08c379a00000000000000000000000000000000000000000000000000000000081526004016116529061394c565b60405180910390fd5b61166481611c0f565b50565b60007f80ac58cd000000000000000000000000000000000000000000000000000000007bffffffffffffffffffffffffffffffffffffffffffffffffffffffff1916827bffffffffffffffffffffffffffffffffffffffffffffffffffffffff1916148061173257507f5b5e139f000000000000000000000000000000000000000000000000000000007bffffffffffffffffffffffffffffffffffffffffffffffffffffffff1916827bffffffffffffffffffffffffffffffffffffffffffffffffffffffff1916145b806117425750611741826120dd565b5b9050919050565b60008073ffffffffffffffffffffffffffffffffffffffff166002600084815260200190815260200160002060009054906101000a900473ffffffffffffffffffffffffffffffffffffffff1673ffffffffffffffffffffffffffffffffffffffff1614159050919050565b600033905090565b816004600083815260200190815260200160002060006101000a81548173ffffffffffffffffffffffffffffffffffffffff021916908373ffffffffffffffffffffffffffffffffffffffff160217905550808273ffffffffffffffffffffffffffffffffffffffff1661183083610f7b565b73ffffffffffffffffffffffffffffffffffffffff167f8c5be1e5ebec7d5bd14f71427d1e84f3dd0314c0f7b2291e5b200ac8c7c3b92560405160405180910390a45050565b600081600001549050919050565b600081836118929190613d1f565b905092915050565b60006118a6600b611876565b90506118b23382612147565b6118bc600b612165565b50565b60006118ca82611749565b611909576040517f08c379a000000000000000000000000000000000000000000000000000000000815260040161190090613a2c565b60405180910390fd5b600061191483610f7b565b90508073ffffffffffffffffffffffffffffffffffffffff168473ffffffffffffffffffffffffffffffffffffffff16148061198357508373ffffffffffffffffffffffffffffffffffffffff1661196b846107b8565b73ffffffffffffffffffffffffffffffffffffffff16145b80611994575061199381856114db565b5b91505092915050565b8273ffffffffffffffffffffffffffffffffffffffff166119bd82610f7b565b73ffffffffffffffffffffffffffffffffffffffff1614611a13576040517f08c379a0000000000000000000000000000000000000000000000000000000008152600401611a0a90613b2c565b60405180910390fd5b600073ffffffffffffffffffffffffffffffffffffffff168273ffffffffffffffffffffffffffffffffffffffff161415611a83576040517f08c379a0000000000000000000000000000000000000000000000000000000008152600401611a7a9061398c565b60405180910390fd5b611a8e83838361217b565b611a996000826117bd565b6001600360008573ffffffffffffffffffffffffffffffffffffffff1673ffffffffffffffffffffffffffffffffffffffff1681526020019081526020016000206000828254611ae99190613e00565b925050819055506001600360008473ffffffffffffffffffffffffffffffffffffffff1673ffffffffffffffffffffffffffffffffffffffff1681526020019081526020016000206000828254611b409190613d1f565b92505081905550816002600083815260200190815260200160002060006101000a81548173ffffffffffffffffffffffffffffffffffffffff021916908373ffffffffffffffffffffffffffffffffffffffff160217905550808273ffffffffffffffffffffffffffffffffffffffff168473ffffffffffffffffffffffffffffffffffffffff167fddf252ad1be2c89b69c2b068fc378daa952ba7f163c4a11628f55a4df523b3ef60405160405180910390a4505050565b60008183611c079190613da6565b905092915050565b6000600a60009054906101000a900473ffffffffffffffffffffffffffffffffffffffff16905081600a60006101000a81548173ffffffffffffffffffffffffffffffffffffffff021916908373ffffffffffffffffffffffffffffffffffffffff1602179055508173ffffffffffffffffffffffffffffffffffffffff168173ffffffffffffffffffffffffffffffffffffffff167f8be0079c531659141344cd1fd0a4f28419497f9722a3daafe3b4186f6b6457e060405160405180910390a35050565b8173ffffffffffffffffffffffffffffffffffffffff168373ffffffffffffffffffffffffffffffffffffffff161415611d44576040517f08c379a0000000000000000000000000000000000000000000000000000000008152600401611d3b906139ac565b60405180910390fd5b80600560008573ffffffffffffffffffffffffffffffffffffffff1673ffffffffffffffffffffffffffffffffffffffff16815260200190815260200160002060008473ffffffffffffffffffffffffffffffffffffffff1673ffffffffffffffffffffffffffffffffffffffff16815260200190815260200160002060006101000a81548160ff0219169083151502179055508173ffffffffffffffffffffffffffffffffffffffff168373ffffffffffffffffffffffffffffffffffffffff167f17307eab39ab6107e8899845ad3d59bd9653f200f220920489ca2b5937696c3183604051611e3591906138af565b60405180910390a3505050565b611e4d84848461199d565b611e598484848461228f565b611e98576040517f08c379a0000000000000000000000000000000000000000000000000000000008152600401611e8f9061392c565b60405180910390fd5b50505050565b6060600c8054611ead90613eea565b80601f0160208091040260200160405190810160405280929190818152602001828054611ed990613eea565b8015611f265780601f10611efb57610100808354040283529160200191611f26565b820191906000526020600020905b815481529060010190602001808311611f0957829003601f168201915b5050505050905090565b60606000821415611f78576040518060400160405280600181526020017f300000000000000000000000000000000000000000000000000000000000000081525090506120d8565b600082905060005b60008214611faa578080611f9390613f1c565b915050600a82611fa39190613d75565b9150611f80565b60008167ffffffffffffffff811115611fec577f4e487b7100000000000000000000000000000000000000000000000000000000600052604160045260246000fd5b6040519080825280601f01601f19166020018201604052801561201e5781602001600182028036833780820191505090505b5090505b600085146120d1576001826120379190613e00565b9150600a856120469190613f65565b60306120529190613d1f565b60f81b81838151811061208e577f4e487b7100000000000000000000000000000000000000000000000000000000600052603260045260246000fd5b60200101907effffffffffffffffffffffffffffffffffffffffffffffffffffffffffffff1916908160001a905350600a856120ca9190613d75565b9450612022565b8093505050505b919050565b60007f01ffc9a7000000000000000000000000000000000000000000000000000000007bffffffffffffffffffffffffffffffffffffffffffffffffffffffff1916827bffffffffffffffffffffffffffffffffffffffffffffffffffffffff1916149050919050565b612161828260405180602001604052806000815250612426565b5050565b6001816000016000828254019250508190555050565b612186838383612481565b600073ffffffffffffffffffffffffffffffffffffffff168373ffffffffffffffffffffffffffffffffffffffff1614156121c9576121c481612486565b612208565b8173ffffffffffffffffffffffffffffffffffffffff168373ffffffffffffffffffffffffffffffffffffffff16146122075761220683826124cf565b5b5b600073ffffffffffffffffffffffffffffffffffffffff168273ffffffffffffffffffffffffffffffffffffffff16141561224b576122468161263c565b61228a565b8273ffffffffffffffffffffffffffffffffffffffff168273ffffffffffffffffffffffffffffffffffffffff161461228957612288828261277f565b5b5b505050565b60006122b08473ffffffffffffffffffffffffffffffffffffffff166127fe565b15612419578373ffffffffffffffffffffffffffffffffffffffff1663150b7a026122d96117b5565b8786866040518563ffffffff1660e01b81526004016122fb9493929190613841565b602060405180830381600087803b15801561231557600080fd5b505af192505050801561234657506040513d601f19601f820116820180604052508101906123439190612d8b565b60015b6123c9573d8060008114612376576040519150601f19603f3d011682016040523d82523d6000602084013e61237b565b606091505b506000815114156123c1576040517f08c379a00000000000000000000000000000000000000000000000000000000081526004016123b89061392c565b60405180910390fd5b805181602001fd5b63150b7a0260e01b7bffffffffffffffffffffffffffffffffffffffffffffffffffffffff1916817bffffffffffffffffffffffffffffffffffffffffffffffffffffffff19161491505061241e565b600190505b949350505050565b6124308383612811565b61243d600084848461228f565b61247c576040517f08c379a00000000000000000000000000000000000000000000000000000000081526004016124739061392c565b60405180910390fd5b505050565b505050565b6008805490506009600083815260200190815260200160002081905550600881908060018154018082558091505060019003906000526020600020016000909190919091505550565b600060016124dc8461102d565b6124e69190613e00565b90506000600760008481526020019081526020016000205490508181146125cb576000600660008673ffffffffffffffffffffffffffffffffffffffff1673ffffffffffffffffffffffffffffffffffffffff168152602001908152602001600020600084815260200190815260200160002054905080600660008773ffffffffffffffffffffffffffffffffffffffff1673ffffffffffffffffffffffffffffffffffffffff168152602001908152602001600020600084815260200190815260200160002081905550816007600083815260200190815260200160002081905550505b6007600084815260200190815260200160002060009055600660008573ffffffffffffffffffffffffffffffffffffffff1673ffffffffffffffffffffffffffffffffffffffff16815260200190815260200160002060008381526020019081526020016000206000905550505050565b600060016008805490506126509190613e00565b90506000600960008481526020019081526020016000205490506000600883815481106126a6577f4e487b7100000000000000000000000000000000000000000000000000000000600052603260045260246000fd5b9060005260206000200154905080600883815481106126ee577f4e487b7100000000000000000000000000000000000000000000000000000000600052603260045260246000fd5b906000526020600020018190555081600960008381526020019081526020016000208190555060096000858152602001908152602001600020600090556008805480612763577f4e487b7100000000000000000000000000000000000000000000000000000000600052603160045260246000fd5b6001900381819060005260206000200160009055905550505050565b600061278a8361102d565b905081600660008573ffffffffffffffffffffffffffffffffffffffff1673ffffffffffffffffffffffffffffffffffffffff168152602001908152602001600020600083815260200190815260200160002081905550806007600084815260200190815260200160002081905550505050565b600080823b905060008111915050919050565b600073ffffffffffffffffffffffffffffffffffffffff168273ffffffffffffffffffffffffffffffffffffffff161415612881576040517f08c379a000000000000000000000000000000000000000000000000000000000815260040161287890613aac565b60405180910390fd5b61288a81611749565b156128ca576040517f08c379a00000000000000000000000000000000000000000000000000000000081526004016128c19061396c565b60405180910390fd5b6128d66000838361217b565b6001600360008473ffffffffffffffffffffffffffffffffffffffff1673ffffffffffffffffffffffffffffffffffffffff16815260200190815260200160002060008282546129269190613d1f565b92505081905550816002600083815260200190815260200160002060006101000a81548173ffffffffffffffffffffffffffffffffffffffff021916908373ffffffffffffffffffffffffffffffffffffffff160217905550808273ffffffffffffffffffffffffffffffffffffffff16600073ffffffffffffffffffffffffffffffffffffffff167fddf252ad1be2c89b69c2b068fc378daa952ba7f163c4a11628f55a4df523b3ef60405160405180910390a45050565b8280546129eb90613eea565b90600052602060002090601f016020900481019282612a0d5760008555612a54565b82601f10612a2657805160ff1916838001178555612a54565b82800160010185558215612a54579182015b82811115612a53578251825591602001919060010190612a38565b5b509050612a619190612a65565b5090565b5b80821115612a7e576000816000905550600101612a66565b5090565b6000612a95612a9084613c38565b613c07565b905082815260208101848484011115612aad57600080fd5b612ab8848285613ea8565b509392505050565b6000612ad3612ace84613c68565b613c07565b905082815260208101848484011115612aeb57600080fd5b612af6848285613ea8565b509392505050565b600081359050612b0d81614063565b92915050565b600081359050612b228161407a565b92915050565b600081359050612b3781614091565b92915050565b600081519050612b4c81614091565b92915050565b600082601f830112612b6357600080fd5b8135612b73848260208601612a82565b91505092915050565b600082601f830112612b8d57600080fd5b8135612b9d848260208601612ac0565b91505092915050565b600081359050612bb5816140a8565b92915050565b600060208284031215612bcd57600080fd5b6000612bdb84828501612afe565b91505092915050565b60008060408385031215612bf757600080fd5b6000612c0585828601612afe565b9250506020612c1685828601612afe565b9150509250929050565b600080600060608486031215612c3557600080fd5b6000612c4386828701612afe565b9350506020612c5486828701612afe565b9250506040612c6586828701612ba6565b9150509250925092565b60008060008060808587031215612c8557600080fd5b6000612c9387828801612afe565b9450506020612ca487828801612afe565b9350506040612cb587828801612ba6565b925050606085013567ffffffffffffffff811115612cd257600080fd5b612cde87828801612b52565b91505092959194509250565b60008060408385031215612cfd57600080fd5b6000612d0b85828601612afe565b9250506020612d1c85828601612b13565b9150509250929050565b60008060408385031215612d3957600080fd5b6000612d4785828601612afe565b9250506020612d5885828601612ba6565b9150509250929050565b600060208284031215612d7457600080fd5b6000612d8284828501612b28565b91505092915050565b600060208284031215612d9d57600080fd5b6000612dab84828501612b3d565b91505092915050565b600060208284031215612dc657600080fd5b600082013567ffffffffffffffff811115612de057600080fd5b612dec84828501612b7c565b91505092915050565b600060208284031215612e0757600080fd5b6000612e1584828501612ba6565b91505092915050565b6000612e2a83836137cf565b60208301905092915050565b612e3f81613e34565b82525050565b6000612e5082613ca8565b612e5a8185613cd6565b9350612e6583613c98565b8060005b83811015612e96578151612e7d8882612e1e565b9750612e8883613cc9565b925050600181019050612e69565b5085935050505092915050565b612eac81613e46565b82525050565b6000612ebd82613cb3565b612ec78185613ce7565b9350612ed7818560208601613eb7565b612ee081614052565b840191505092915050565b6000612ef682613cbe565b612f008185613d03565b9350612f10818560208601613eb7565b612f1981614052565b840191505092915050565b6000612f2f82613cbe565b612f398185613d14565b9350612f49818560208601613eb7565b80840191505092915050565b6000612f62601f83613d03565b91507f4e6f7420656e6f756768204e465473206c65667420746f2072657365727665006000830152602082019050919050565b6000612fa2602b83613d03565b91507f455243373231456e756d657261626c653a206f776e657220696e646578206f7560008301527f74206f6620626f756e64730000000000000000000000000000000000000000006020830152604082019050919050565b6000613008603283613d03565b91507f4552433732313a207472616e7366657220746f206e6f6e20455243373231526560008301527f63656976657220696d706c656d656e74657200000000000000000000000000006020830152604082019050919050565b600061306e602683613d03565b91507f4f776e61626c653a206e6577206f776e657220697320746865207a65726f206160008301527f64647265737300000000000000000000000000000000000000000000000000006020830152604082019050919050565b60006130d4601c83613d03565b91507f4552433732313a20746f6b656e20616c7265616479206d696e746564000000006000830152602082019050919050565b6000613114602483613d03565b91507f4552433732313a207472616e7366657220746f20746865207a65726f2061646460008301527f72657373000000000000000000000000000000000000000000000000000000006020830152604082019050919050565b600061317a601983613d03565b91507f4552433732313a20617070726f766520746f2063616c6c6572000000000000006000830152602082019050919050565b60006131ba602283613d03565b91507f4e6f7420656e6f75676820657468657220746f207075726368617365204e465460008301527f732e0000000000000000000000000000000000000000000000000000000000006020830152604082019050919050565b6000613220601583613d03565b91507f4e6f7420656e6f756768204e465473206c6566742100000000000000000000006000830152602082019050919050565b6000613260602583613d03565b91507f43616e6e6f74206d696e7420737065636966696564206e756d626572206f662060008301527f4e4654732e0000000000000000000000000000000000000000000000000000006020830152604082019050919050565b60006132c6602c83613d03565b91507f4552433732313a206f70657261746f7220717565727920666f72206e6f6e657860008301527f697374656e7420746f6b656e00000000000000000000000000000000000000006020830152604082019050919050565b600061332c603883613d03565b91507f4552433732313a20617070726f76652063616c6c6572206973206e6f74206f7760008301527f6e6572206e6f7220617070726f76656420666f7220616c6c00000000000000006020830152604082019050919050565b6000613392602a83613d03565b91507f4552433732313a2062616c616e636520717565727920666f7220746865207a6560008301527f726f2061646472657373000000000000000000000000000000000000000000006020830152604082019050919050565b60006133f8602983613d03565b91507f4552433732313a206f776e657220717565727920666f72206e6f6e657869737460008301527f656e7420746f6b656e00000000000000000000000000000000000000000000006020830152604082019050919050565b600061345e602083613d03565b91507f4552433732313a206d696e7420746f20746865207a65726f20616464726573736000830152602082019050919050565b600061349e601983613d03565b91507f4e6f206574686572206c65667420746f207769746864726177000000000000006000830152602082019050919050565b60006134de602c83613d03565b91507f4552433732313a20617070726f76656420717565727920666f72206e6f6e657860008301527f697374656e7420746f6b656e00000000000000000000000000000000000000006020830152604082019050919050565b6000613544602083613d03565b91507f4f776e61626c653a2063616c6c6572206973206e6f7420746865206f776e65726000830152602082019050919050565b6000613584602983613d03565b91507f4552433732313a207472616e73666572206f6620746f6b656e2074686174206960008301527f73206e6f74206f776e00000000000000000000000000000000000000000000006020830152604082019050919050565b60006135ea602f83613d03565b91507f4552433732314d657461646174613a2055524920717565727920666f72206e6f60008301527f6e6578697374656e7420746f6b656e00000000000000000000000000000000006020830152604082019050919050565b6000613650602183613d03565b91507f4552433732313a20617070726f76616c20746f2063757272656e74206f776e6560008301527f72000000000000000000000000000000000000000000000000000000000000006020830152604082019050919050565b60006136b6600083613cf8565b9150600082019050919050565b60006136d0601083613d03565b91507f5472616e73666572206661696c65642e000000000000000000000000000000006000830152602082019050919050565b6000613710603183613d03565b91507f4552433732313a207472616e736665722063616c6c6572206973206e6f74206f60008301527f776e6572206e6f7220617070726f7665640000000000000000000000000000006020830152604082019050919050565b6000613776602c83613d03565b91507f455243373231456e756d657261626c653a20676c6f62616c20696e646578206f60008301527f7574206f6620626f756e647300000000000000000000000000000000000000006020830152604082019050919050565b6137d881613e9e565b82525050565b6137e781613e9e565b82525050565b60006137f98285612f24565b91506138058284612f24565b91508190509392505050565b600061381c826136a9565b9150819050919050565b600060208201905061383b6000830184612e36565b92915050565b60006080820190506138566000830187612e36565b6138636020830186612e36565b61387060408301856137de565b81810360608301526138828184612eb2565b905095945050505050565b600060208201905081810360008301526138a78184612e45565b905092915050565b60006020820190506138c46000830184612ea3565b92915050565b600060208201905081810360008301526138e48184612eeb565b905092915050565b6000602082019050818103600083015261390581612f55565b9050919050565b6000602082019050818103600083015261392581612f95565b9050919050565b6000602082019050818103600083015261394581612ffb565b9050919050565b6000602082019050818103600083015261396581613061565b9050919050565b60006020820190508181036000830152613985816130c7565b9050919050565b600060208201905081810360008301526139a581613107565b9050919050565b600060208201905081810360008301526139c58161316d565b9050919050565b600060208201905081810360008301526139e5816131ad565b9050919050565b60006020820190508181036000830152613a0581613213565b9050919050565b60006020820190508181036000830152613a2581613253565b9050919050565b60006020820190508181036000830152613a45816132b9565b9050919050565b60006020820190508181036000830152613a658161331f565b9050919050565b60006020820190508181036000830152613a8581613385565b9050919050565b60006020820190508181036000830152613aa5816133eb565b9050919050565b60006020820190508181036000830152613ac581613451565b9050919050565b60006020820190508181036000830152613ae581613491565b9050919050565b60006020820190508181036000830152613b05816134d1565b9050919050565b60006020820190508181036000830152613b2581613537565b9050919050565b60006020820190508181036000830152613b4581613577565b9050919050565b60006020820190508181036000830152613b65816135dd565b9050919050565b60006020820190508181036000830152613b8581613643565b9050919050565b60006020820190508181036000830152613ba5816136c3565b9050919050565b60006020820190508181036000830152613bc581613703565b9050919050565b60006020820190508181036000830152613be581613769565b9050919050565b6000602082019050613c0160008301846137de565b92915050565b6000604051905081810181811067ffffffffffffffff82111715613c2e57613c2d614023565b5b8060405250919050565b600067ffffffffffffffff821115613c5357613c52614023565b5b601f19601f8301169050602081019050919050565b600067ffffffffffffffff821115613c8357613c82614023565b5b601f19601f8301169050602081019050919050565b6000819050602082019050919050565b600081519050919050565b600081519050919050565b600081519050919050565b6000602082019050919050565b600082825260208201905092915050565b600082825260208201905092915050565b600081905092915050565b600082825260208201905092915050565b600081905092915050565b6000613d2a82613e9e565b9150613d3583613e9e565b9250827fffffffffffffffffffffffffffffffffffffffffffffffffffffffffffffffff03821115613d6a57613d69613f96565b5b828201905092915050565b6000613d8082613e9e565b9150613d8b83613e9e565b925082613d9b57613d9a613fc5565b5b828204905092915050565b6000613db182613e9e565b9150613dbc83613e9e565b9250817fffffffffffffffffffffffffffffffffffffffffffffffffffffffffffffffff0483118215151615613df557613df4613f96565b5b828202905092915050565b6000613e0b82613e9e565b9150613e1683613e9e565b925082821015613e2957613e28613f96565b5b828203905092915050565b6000613e3f82613e7e565b9050919050565b60008115159050919050565b60007fffffffff0000000000000000000000000000000000000000000000000000000082169050919050565b600073ffffffffffffffffffffffffffffffffffffffff82169050919050565b6000819050919050565b82818337600083830152505050565b60005b83811015613ed5578082015181840152602081019050613eba565b83811115613ee4576000848401525b50505050565b60006002820490506001821680613f0257607f821691505b60208210811415613f1657613f15613ff4565b5b50919050565b6000613f2782613e9e565b91507fffffffffffffffffffffffffffffffffffffffffffffffffffffffffffffffff821415613f5a57613f59613f96565b5b600182019050919050565b6000613f7082613e9e565b9150613f7b83613e9e565b925082613f8b57613f8a613fc5565b5b828206905092915050565b7f4e487b7100000000000000000000000000000000000000000000000000000000600052601160045260246000fd5b7f4e487b7100000000000000000000000000000000000000000000000000000000600052601260045260246000fd5b7f4e487b7100000000000000000000000000000000000000000000000000000000600052602260045260246000fd5b7f4e487b7100000000000000000000000000000000000000000000000000000000600052604160045260246000fd5b6000601f19601f8301169050919050565b61406c81613e34565b811461407757600080fd5b50565b61408381613e46565b811461408e57600080fd5b50565b61409a81613e52565b81146140a557600080fd5b50565b6140b181613e9e565b81146140bc57600080fd5b5056fea264697066735822122003828be332b095ce7bf168b45199bc8a41b0b810f944b1fd33baea3709453eeb64736f6c63430008000033",
  "linkReferences": {},
  "deployedLinkReferences": {}
}